20101203
CCB  184650081846500810I00008111   2010092720121024INTEGRAL       201012010001043201012011926363700000000000000000000002000000000000000000000000100000000000000000201012010000000000000000COSTA 20101201182511      201012011825110000000000000000
CCB  704304047643000609B00014903   2009021720111201SEM COOBRIGACAO201012010060040201011301925997000000000000000000000000000000000000000000000000100000000000000000201012010000000000000000      20101201093011      201012010930110000000000000000
CCB  704304047643000609B00014903   2009021720111201SEM COOBRIGACAO201012010074040201011301925996700000000000000000000000000000000000000000000000100000000000000000201012010000000000000000      20101201093011      201012010930110000000000000000
CCB  718404027184000010K00000179   2010110120111101SEM COOBRIGACAO201012010074040201011301925752300000000000000000000000000000000000000000000016500000000000000000201012010000000000000000      20101201093011      201012010930110000000000000000
CCB  718404027184000010K00000179   2010110120111101SEM COOBRIGACAO201012010060040201011301925752200000000000000000000000000000000000000000000016500000000000000000201012010000000000000000      20101201093011      201012010930110000000000000000
CCB  720804057208000310D00002376   2010041620120201SEM COOBRIGACAO201012010074043201011301925744900000000000000000000047618998095240000000000000100000000047618990201012010000000000000000      20101130233012      201011302330120000000000000000
CCB  720804057208000310D00002376   2010041620120201SEM COOBRIGACAO201012010060043201011301925744400000000000000000000146407500563820000000000000100000000146407500201012010000000000000000      20101130233012      201011302330120000000000000000
CCB  720804057208000310D00002377   2010041620120201SEM COOBRIGACAO201012010074043201011301925744700000000000000000000047618998095240000000000000100000000047618990201012010000000000000000      20101130233012      201011302330120000000000000000
CCB  720804057208000310D00002377   2010041620120201SEM COOBRIGACAO201012010060043201011301925744200000000000000000000146407500563820000000000000100000000146407500201012010000000000000000      20101130233012      201011302330120000000000000000
CCB  720804057208000310D00002378   2010041620120201SEM COOBRIGACAO201012010074043201011301925744600000000000000000000047618998095240000000000000100000000047618990201012010000000000000000      20101130233012      201011302330120000000000000000
CCB  720804057208000310D00002378   2010041620120201SEM COOBRIGACAO201012010060043201011301925744100000000000000000000146407500563820000000000000100000000146407500201012010000000000000000      20101130233012      201011302330120000000000000000
CCB  720804057208000310D00002375   2010041620120201SEM COOBRIGACAO201012010074043201011301925744800000000000000000000047618998095240000000000000100000000047618990201012010000000000000000      20101130233012      201011302330120000000000000000
CCB  720804057208000310D00002375   2010041620120201SEM COOBRIGACAO201012010060043201011301925744300000000000000000000146407500563820000000000000100000000146407500201012010000000000000000      20101130233012      201011302330120000000000000000
CCB  720804057208000310D00002379   2010041620120201SEM COOBRIGACAO201012010060043201011301925744500000000000000000000051242604700290000000000000100000000051242600201012010000000000000000      20101130233012      201011302330120000000000000000
CCB  721804087218060409F00018302   2009062920140601SEM COOBRIGACAO201012010074043201011301925459700000000000000000000275633800008840000000000000100000000275633800201012010000000000000000      20101130232845      201011302328450000000000000000
CCB  721804087218000609F00018273   2009062920140601SEM COOBRIGACAO201012010069043201011301925455400000000000000000000311056920000000000000000000100000000311056920201012010000000000000000      20101130232843      201011302328430000000000000000
CCB  721804087218000609F00018275   2009062920140601SEM COOBRIGACAO201012010074043201011301925455600000000000000000000241919319877900000000000000100000000241919310201012010000000000000000      20101130232843      201011302328430000000000000000
CCB  721804087218000609F00018275   2009062920140601SEM COOBRIGACAO201012010060043201011301925455500000000000000000000006123210470570000000000000100000000006123210201012010000000000000000      20101130232843      201011302328430000000000000000
CCB  721804087218000609F00018276   2009062920140601SEM COOBRIGACAO201012010069043201011301925455800000000000000000000311056920000000000000000000100000000311056920201012010000000000000000      20101130232843      201011302328430000000000000000
CCB  721804087218000609F00018302   2009062920140601SEM COOBRIGACAO201012010060043201011301925459900000000000000000000076801123534750000000000000100000000076801120201012010000000000000000      20101130232845      201011302328450000000000000000
CCB  727704097250000207K00000060   2007110720121101SEM COOBRIGACAO201012010074043201011301925439200000000000000000000999960000000000000000000000100000000999960000201012010000000000000000      20101130232837      201011302328370000000000000000
CCB  727704097250000207K00000060   2007110720121101SEM COOBRIGACAO201012010060043201011301925439000000000000000000000380844843171000000000000000100000000380844840201012010000000000000000      20101130232837      201011302328370000000000000000
CCB  742204077422000507F00002200   2007062820120601INTEGRAL       201012010074043201011301925443700000000000000000000199992000000000000000000000100000000199992000201012010000000000000000      20101130232839      201011302328390000000000000000
CCB  742204077422000507F00002200   2007062820120601INTEGRAL       201012010060043201011301925443400000000000000000000019510116099710000000000000100000000019510110201012010000000000000000      20101130232839      201011302328390000000000000000
CCB  742204077422000508H00018124   2008081520110801INTEGRAL       201012010074043201011301925445400000000000000000000036110100000000000000000000100000000036110100201012010000000000000000      20101130232839      201011302328390000000000000000
CCB  742204077422000508H00018124   2008081520110801INTEGRAL       201012010060043201011301925445300000000000000000000003289371754170000000000000100000000003289370201012010000000000000000      20101130232840      201011302328400000000000000000
CCB  742204077422000507F00002392   2007062020120424INTEGRAL       201012010074040201011301925446700000000000000000000000000000000000000000000000100000000000000000201012010000000000000000      20101201093010      201012010930100000000000000000
CCB  742204077422000507F00002392   2007062020120424INTEGRAL       201012010060040201011301925446500000000000000000000000000000000000000000000000100000000000000000201012010000000000000000      20101201093010      201012010930100000000000000000
CCB  742204077422000507F00002368   2007062820120601INTEGRAL       201012010074043201011301925446300000000000000000000199992000000000000000000000100000000199992000201012010000000000000000      20101130232840      201011302328400000000000000000
CCB  742204077422000507F00002368   2007062820120601INTEGRAL       201012010060043201011301925446000000000000000000000005282769475250000000000000100000000005282760201012010000000000000000      20101130232840      201011302328400000000000000000
CCB  742204077422000508H00018310   2008081520110801INTEGRAL       201012010074043201011301925445900000000000000000000036110100000000000000000000100000000036110100201012010000000000000000      20101130232840      201011302328400000000000000000
CCB  742204077422000508H00018310   2008081520110801INTEGRAL       201012010060043201011301925445800000000000000000000003289371754170000000000000100000000003289370201012010000000000000000      20101130232840      201011302328400000000000000000
CCB  742204077422000508H00018248   2008081520110801INTEGRAL       201012010074043201011301925446100000000000000000000036110100000000000000000000100000000036110100201012010000000000000000      20101130232840      201011302328400000000000000000
CCB  742204077422000508H00018248   2008081520110801INTEGRAL       201012010060043201011301925445700000000000000000000003289371754170000000000000100000000003289370201012010000000000000000      20101130232840      201011302328400000000000000000
CCB  742204077422000507F00002263   2007062820120601INTEGRAL       201012010074043201011301925444900000000000000000000199992000000000000000000000100000000199992000201012010000000000000000      20101130232839      201011302328390000000000000000
CCB  742204077422000507F00002263   2007062820120601INTEGRAL       201012010060043201011301925444700000000000000000000005282769475250000000000000100000000005282760201012010000000000000000      20101130232839      201011302328390000000000000000
CCB  742204077422000507F00002242   2007062820120601INTEGRAL       201012010074043201011301925444200000000000000000000199992000000000000000000000100000000199992000201012010000000000000000      20101130232839      201011302328390000000000000000
CCB  742204077422000507F00002242   2007062820120601INTEGRAL       201012010060043201011301925443900000000000000000000019510116099710000000000000100000000019510110201012010000000000000000      20101130232839      201011302328390000000000000000
CCB  742204077422000508H00017999   2008081520110801INTEGRAL       201012010074043201011301925444800000000000000000000036110100000000000000000000100000000036110100201012010000000000000000      20101130232839      201011302328390000000000000000
CCB  742204077422000508H00017999   2008081520110801INTEGRAL       201012010060043201011301925444300000000000000000000003289371754170000000000000100000000003289370201012010000000000000000      20101130232839      201011302328390000000000000000
CCB  742204077422000507F00002347   2007062820120601INTEGRAL       201012010074043201011301925445600000000000000000000199992000000000000000000000100000000199992000201012010000000000000000      20101130232840      201011302328400000000000000000
CCB  742204077422000507F00002347   2007062820120601INTEGRAL       201012010060043201011301925445500000000000000000000005282769475250000000000000100000000005282760201012010000000000000000      20101130232840      201011302328400000000000000000
CCB  742204077422000507F00002283   2007062820120601INTEGRAL       201012010074043201011301925445000000000000000000000199992000000000000000000000100000000199992000201012010000000000000000      20101130232839      201011302328390000000000000000
CCB  742204077422000507F00002283   2007062820120601INTEGRAL       201012010060043201011301925444600000000000000000000005282769475250000000000000100000000005282760201012010000000000000000      20101130232839      201011302328390000000000000000
CCB  742204077422000507F00002305   2007062820120601INTEGRAL       201012010074043201011301925445200000000000000000000199992000000000000000000000100000000199992000201012010000000000000000      20101130232840      201011302328400000000000000000
CCB  742204077422000507F00002305   2007062820120601INTEGRAL       201012010060043201011301925445100000000000000000000005282769475250000000000000100000000005282760201012010000000000000000      20101130232840      201011302328400000000000000000
CCB  742204077422000508H00017814   2008081520110801INTEGRAL       201012010074043201011301925443800000000000000000000036110100000000000000000000100000000036110100201012010000000000000000      20101130232839      201011302328390000000000000000
CCB  742204077422000508H00017814   2008081520110801INTEGRAL       201012010060043201011301925443600000000000000000000004350830305800000000000000100000000004350830201012010000000000000000      20101130232839      201011302328390000000000000000
CCB  742204077422000508H00018061   2008081520110801INTEGRAL       201012010074043201011301925444400000000000000000000036110100000000000000000000100000000036110100201012010000000000000000      20101130232839      201011302328390000000000000000